{
  "_format": "hh-sol-artifact-1",
  "contractName": "NFTExplorer",
  "sourceName": "contracts/NFTExplorer.sol",
  "abi": [
    {
      "inputs": [],
      "stateMutability": "nonpayable",
      "type": "constructor"
    },
    {
      "anonymous": false,
      "inputs": [
        {
          "indexed": true,
          "internalType": "address",
          "name": "owner",
          "type": "address"
        },
        {
          "indexed": true,
          "internalType": "address",
          "name": "approved",
          "type": "address"
        },
        {
          "indexed": true,
          "internalType": "uint256",
          "name": "tokenId",
          "type": "uint256"
        }
      ],
      "name": "Approval",
      "type": "event"
    },
    {
      "anonymous": false,
      "inputs": [
        {
          "indexed": true,
          "internalType": "address",
          "name": "owner",
          "type": "address"
        },
        {
          "indexed": true,
          "internalType": "address",
          "name": "operator",
          "type": "address"
        },
        {
          "indexed": false,
          "internalType": "bool",
          "name": "approved",
          "type": "bool"
        }
      ],
      "name": "ApprovalForAll",
      "type": "event"
    },
    {
      "anonymous": false,
      "inputs": [
        {
          "indexed": true,
          "internalType": "address",
          "name": "previousOwner",
          "type": "address"
        },
        {
          "indexed": true,
          "internalType": "address",
          "name": "newOwner",
          "type": "address"
        }
      ],
      "name": "OwnershipTransferred",
      "type": "event"
    },
    {
      "anonymous": false,
      "inputs": [
        {
          "indexed": true,
          "internalType": "address",
          "name": "from",
          "type": "address"
        },
        {
          "indexed": true,
          "internalType": "address",
          "name": "to",
          "type": "address"
        },
        {
          "indexed": true,
          "internalType": "uint256",
          "name": "tokenId",
          "type": "uint256"
        }
      ],
      "name": "Transfer",
      "type": "event"
    },
    {
      "inputs": [],
      "name": "MAX_SUPPLY",
      "outputs": [
        {
          "internalType": "uint256",
          "name": "",
          "type": "uint256"
        }
      ],
      "stateMutability": "view",
      "type": "function"
    },
    {
      "inputs": [],
      "name": "PRICE_PER_TOKEN",
      "outputs": [
        {
          "internalType": "uint256",
          "name": "",
          "type": "uint256"
        }
      ],
      "stateMutability": "view",
      "type": "function"
    },
    {
      "inputs": [
        {
          "internalType": "address",
          "name": "to",
          "type": "address"
        },
        {
          "internalType": "uint256",
          "name": "tokenId",
          "type": "uint256"
        }
      ],
      "name": "approve",
      "outputs": [],
      "stateMutability": "nonpayable",
      "type": "function"
    },
    {
      "inputs": [
        {
          "internalType": "address",
          "name": "owner",
          "type": "address"
        }
      ],
      "name": "balanceOf",
      "outputs": [
        {
          "internalType": "uint256",
          "name": "",
          "type": "uint256"
        }
      ],
      "stateMutability": "view",
      "type": "function"
    },
    {
      "inputs": [
        {
          "internalType": "uint256",
          "name": "tokenId",
          "type": "uint256"
        }
      ],
      "name": "getApproved",
      "outputs": [
        {
          "internalType": "address",
          "name": "",
          "type": "address"
        }
      ],
      "stateMutability": "view",
      "type": "function"
    },
    {
      "inputs": [
        {
          "internalType": "address",
          "name": "owner",
          "type": "address"
        },
        {
          "internalType": "address",
          "name": "operator",
          "type": "address"
        }
      ],
      "name": "isApprovedForAll",
      "outputs": [
        {
          "internalType": "bool",
          "name": "",
          "type": "bool"
        }
      ],
      "stateMutability": "view",
      "type": "function"
    },
    {
      "inputs": [
        {
          "internalType": "uint256",
          "name": "numberOfTokens",
          "type": "uint256"
        }
      ],
      "name": "mint",
      "outputs": [],
      "stateMutability": "payable",
      "type": "function"
    },
    {
      "inputs": [],
      "name": "name",
      "outputs": [
        {
          "internalType": "string",
          "name": "",
          "type": "string"
        }
      ],
      "stateMutability": "view",
      "type": "function"
    },
    {
      "inputs": [],
      "name": "owner",
      "outputs": [
        {
          "internalType": "address",
          "name": "",
          "type": "address"
        }
      ],
      "stateMutability": "view",
      "type": "function"
    },
    {
      "inputs": [
        {
          "internalType": "uint256",
          "name": "tokenId",
          "type": "uint256"
        }
      ],
      "name": "ownerOf",
      "outputs": [
        {
          "internalType": "address",
          "name": "",
          "type": "address"
        }
      ],
      "stateMutability": "view",
      "type": "function"
    },
    {
      "inputs": [],
      "name": "renounceOwnership",
      "outputs": [],
      "stateMutability": "nonpayable",
      "type": "function"
    },
    {
      "inputs": [
        {
          "internalType": "address",
          "name": "from",
          "type": "address"
        },
        {
          "internalType": "address",
          "name": "to",
          "type": "address"
        },
        {
          "internalType": "uint256",
          "name": "tokenId",
          "type": "uint256"
        }
      ],
      "name": "safeTransferFrom",
      "outputs": [],
      "stateMutability": "nonpayable",
      "type": "function"
    },
    {
      "inputs": [
        {
          "internalType": "address",
          "name": "from",
          "type": "address"
        },
        {
          "internalType": "address",
          "name": "to",
          "type": "address"
        },
        {
          "internalType": "uint256",
          "name": "tokenId",
          "type": "uint256"
        },
        {
          "internalType": "bytes",
          "name": "_data",
          "type": "bytes"
        }
      ],
      "name": "safeTransferFrom",
      "outputs": [],
      "stateMutability": "nonpayable",
      "type": "function"
    },
    {
      "inputs": [
        {
          "internalType": "address",
          "name": "operator",
          "type": "address"
        },
        {
          "internalType": "bool",
          "name": "approved",
          "type": "bool"
        }
      ],
      "name": "setApprovalForAll",
      "outputs": [],
      "stateMutability": "nonpayable",
      "type": "function"
    },
    {
      "inputs": [
        {
          "internalType": "string",
          "name": "baseURI_",
          "type": "string"
        }
      ],
      "name": "setBaseURI",
      "outputs": [],
      "stateMutability": "nonpayable",
      "type": "function"
    },
    {
      "inputs": [
        {
          "internalType": "bytes4",
          "name": "interfaceId",
          "type": "bytes4"
        }
      ],
      "name": "supportsInterface",
      "outputs": [
        {
          "internalType": "bool",
          "name": "",
          "type": "bool"
        }
      ],
      "stateMutability": "view",
      "type": "function"
    },
    {
      "inputs": [],
      "name": "symbol",
      "outputs": [
        {
          "internalType": "string",
          "name": "",
          "type": "string"
        }
      ],
      "stateMutability": "view",
      "type": "function"
    },
    {
      "inputs": [
        {
          "internalType": "uint256",
          "name": "index",
          "type": "uint256"
        }
      ],
      "name": "tokenByIndex",
      "outputs": [
        {
          "internalType": "uint256",
          "name": "",
          "type": "uint256"
        }
      ],
      "stateMutability": "view",
      "type": "function"
    },
    {
      "inputs": [
        {
          "internalType": "address",
          "name": "owner",
          "type": "address"
        },
        {
          "internalType": "uint256",
          "name": "index",
          "type": "uint256"
        }
      ],
      "name": "tokenOfOwnerByIndex",
      "outputs": [
        {
          "internalType": "uint256",
          "name": "",
          "type": "uint256"
        }
      ],
      "stateMutability": "view",
      "type": "function"
    },
    {
      "inputs": [
        {
          "internalType": "uint256",
          "name": "tokenId",
          "type": "uint256"
        }
      ],
      "name": "tokenURI",
      "outputs": [
        {
          "internalType": "string",
          "name": "",
          "type": "string"
        }
      ],
      "stateMutability": "view",
      "type": "function"
    },
    {
      "inputs": [],
      "name": "totalSupply",
      "outputs": [
        {
          "internalType": "uint256",
          "name": "",
          "type": "uint256"
        }
      ],
      "stateMutability": "view",
      "type": "function"
    },
    {
      "inputs": [
        {
          "internalType": "address",
          "name": "from",
          "type": "address"
        },
        {
          "internalType": "address",
          "name": "to",
          "type": "address"
        },
        {
          "internalType": "uint256",
          "name": "tokenId",
          "type": "uint256"
        }
      ],
      "name": "transferFrom",
      "outputs": [],
      "stateMutability": "nonpayable",
      "type": "function"
    },
    {
      "inputs": [
        {
          "internalType": "address",
          "name": "newOwner",
          "type": "address"
        }
      ],
      "name": "transferOwnership",
      "outputs": [],
      "stateMutability": "nonpayable",
      "type": "function"
    },
    {
      "inputs": [],
      "name": "withdraw",
      "outputs": [],
      "stateMutability": "nonpayable",
      "type": "function"
    }
  ],
  "bytecode": "0x60806040523480156200001157600080fd5b506040518060400160405280600f81526020017f6c6a5f6e66745f6578706c6f72657200000000000000000000000000000000008152506040518060400160405280600f81526020017f4c4a5f4e46545f4558504c4f5245520000000000000000000000000000000000815250816000908051906020019062000096929190620001a6565b508060019080519060200190620000af929190620001a6565b505050620000d2620000c6620000d860201b60201c565b620000e060201b60201c565b620002bb565b600033905090565b6000600a60009054906101000a900473ffffffffffffffffffffffffffffffffffffffff16905081600a60006101000a81548173ffffffffffffffffffffffffffffffffffffffff021916908373ffffffffffffffffffffffffffffffffffffffff1602179055508173ffffffffffffffffffffffffffffffffffffffff168173ffffffffffffffffffffffffffffffffffffffff167f8be0079c531659141344cd1fd0a4f28419497f9722a3daafe3b4186f6b6457e060405160405180910390a35050565b828054620001b49062000256565b90600052602060002090601f016020900481019282620001d8576000855562000224565b82601f10620001f357805160ff191683800117855562000224565b8280016001018555821562000224579182015b828111156200022357825182559160200191906001019062000206565b5b50905062000233919062000237565b5090565b5b808211156200025257600081600090555060010162000238565b5090565b600060028204905060018216806200026f57607f821691505b602082108114156200028657620002856200028c565b5b50919050565b7f4e487b7100000000000000000000000000000000000000000000000000000000600052602260045260246000fd5b61394480620002cb6000396000f3fe60806040526004361061014b5760003560e01c80636352211e116100b6578063a0712d681161006f578063a0712d6814610492578063a22cb465146104ae578063b88d4fde146104d7578063c87b56dd14610500578063e985e9c51461053d578063f2fde38b1461057a5761014b565b80636352211e1461038057806370a08231146103bd578063715018a6146103fa578063833b9499146104115780638da5cb5b1461043c57806395d89b41146104675761014b565b80632f745c59116101085780632f745c591461027257806332cb6b0c146102af5780633ccfd60b146102da57806342842e0e146102f15780634f6ccce71461031a57806355f804b3146103575761014b565b806301ffc9a71461015057806306fdde031461018d578063081812fc146101b8578063095ea7b3146101f557806318160ddd1461021e57806323b872dd14610249575b600080fd5b34801561015c57600080fd5b5061017760048036038101906101729190612846565b6105a3565b6040516101849190612cf6565b60405180910390f35b34801561019957600080fd5b506101a26105b5565b6040516101af9190612d11565b60405180910390f35b3480156101c457600080fd5b506101df60048036038101906101da91906128d9565b610647565b6040516101ec9190612c8f565b60405180910390f35b34801561020157600080fd5b5061021c6004803603810190610217919061280a565b6106cc565b005b34801561022a57600080fd5b506102336107e4565b6040516102409190612f93565b60405180910390f35b34801561025557600080fd5b50610270600480360381019061026b9190612704565b6107f1565b005b34801561027e57600080fd5b506102996004803603810190610294919061280a565b610851565b6040516102a69190612f93565b60405180910390f35b3480156102bb57600080fd5b506102c46108f6565b6040516102d19190612f93565b60405180910390f35b3480156102e657600080fd5b506102ef6108fb565b005b3480156102fd57600080fd5b5061031860048036038101906103139190612704565b6109c6565b005b34801561032657600080fd5b50610341600480360381019061033c91906128d9565b6109e6565b60405161034e9190612f93565b60405180910390f35b34801561036357600080fd5b5061037e60048036038101906103799190612898565b610a7d565b005b34801561038c57600080fd5b506103a760048036038101906103a291906128d9565b610b13565b6040516103b49190612c8f565b60405180910390f35b3480156103c957600080fd5b506103e460048036038101906103df919061269f565b610bc5565b6040516103f19190612f93565b60405180910390f35b34801561040657600080fd5b5061040f610c7d565b005b34801561041d57600080fd5b50610426610d05565b6040516104339190612f93565b60405180910390f35b34801561044857600080fd5b50610451610d10565b60405161045e9190612c8f565b60405180910390f35b34801561047357600080fd5b5061047c610d3a565b6040516104899190612d11565b60405180910390f35b6104ac60048036038101906104a791906128d9565b610dcc565b005b3480156104ba57600080fd5b506104d560048036038101906104d091906127ce565b610e5f565b005b3480156104e357600080fd5b506104fe60048036038101906104f99190612753565b610e75565b005b34801561050c57600080fd5b50610527600480360381019061052291906128d9565b610ed7565b6040516105349190612d11565b60405180910390f35b34801561054957600080fd5b50610564600480360381019061055f91906126c8565b610f7e565b6040516105719190612cf6565b60405180910390f35b34801561058657600080fd5b506105a1600480360381019061059c919061269f565b611012565b005b60006105ae8261110a565b9050919050565b6060600080546105c4906131e9565b80601f01602080910402602001604051908101604052809291908181526020018280546105f0906131e9565b801561063d5780601f106106125761010080835404028352916020019161063d565b820191906000526020600020905b81548152906001019060200180831161062057829003601f168201915b5050505050905090565b600061065282611184565b610691576040517f08c379a000000000000000000000000000000000000000000000000000000000815260040161068890612ed3565b60405180910390fd5b6004600083815260200190815260200160002060009054906101000a900473ffffffffffffffffffffffffffffffffffffffff169050919050565b60006106d782610b13565b90508073ffffffffffffffffffffffffffffffffffffffff168373ffffffffffffffffffffffffffffffffffffffff161415610748576040517f08c379a000000000000000000000000000000000000000000000000000000000815260040161073f90612f33565b60405180910390fd5b8073ffffffffffffffffffffffffffffffffffffffff166107676111f0565b73ffffffffffffffffffffffffffffffffffffffff1614806107965750610795816107906111f0565b610f7e565b5b6107d5576040517f08c379a00000000000000000000000000000000000000000000000000000000081526004016107cc90612e53565b60405180910390fd5b6107df83836111f8565b505050565b6000600880549050905090565b6108026107fc6111f0565b826112b1565b610841576040517f08c379a000000000000000000000000000000000000000000000000000000000815260040161083890612f53565b60405180910390fd5b61084c83838361138f565b505050565b600061085c83610bc5565b821061089d576040517f08c379a000000000000000000000000000000000000000000000000000000000815260040161089490612d33565b60405180910390fd5b600660008473ffffffffffffffffffffffffffffffffffffffff1673ffffffffffffffffffffffffffffffffffffffff168152602001908152602001600020600083815260200190815260200160002054905092915050565b606481565b6109036111f0565b73ffffffffffffffffffffffffffffffffffffffff16610921610d10565b73ffffffffffffffffffffffffffffffffffffffff1614610977576040517f08c379a000000000000000000000000000000000000000000000000000000000815260040161096e90612ef3565b60405180910390fd5b60004790503373ffffffffffffffffffffffffffffffffffffffff166108fc829081150290604051600060405180830381858888f193505050501580156109c2573d6000803e3d6000fd5b5050565b6109e183838360405180602001604052806000815250610e75565b505050565b60006109f06107e4565b8210610a31576040517f08c379a0000000000000000000000000000000000000000000000000000000008152600401610a2890612f73565b60405180910390fd5b60088281548110610a6b577f4e487b7100000000000000000000000000000000000000000000000000000000600052603260045260246000fd5b90600052602060002001549050919050565b610a856111f0565b73ffffffffffffffffffffffffffffffffffffffff16610aa3610d10565b73ffffffffffffffffffffffffffffffffffffffff1614610af9576040517f08c379a0000000000000000000000000000000000000000000000000000000008152600401610af090612ef3565b60405180910390fd5b80600b9080519060200190610b0f9291906124c3565b5050565b6000806002600084815260200190815260200160002060009054906101000a900473ffffffffffffffffffffffffffffffffffffffff169050600073ffffffffffffffffffffffffffffffffffffffff168173ffffffffffffffffffffffffffffffffffffffff161415610bbc576040517f08c379a0000000000000000000000000000000000000000000000000000000008152600401610bb390612e93565b60405180910390fd5b80915050919050565b60008073ffffffffffffffffffffffffffffffffffffffff168273ffffffffffffffffffffffffffffffffffffffff161415610c36576040517f08c379a0000000000000000000000000000000000000000000000000000000008152600401610c2d90612e73565b60405180910390fd5b600360008373ffffffffffffffffffffffffffffffffffffffff1673ffffffffffffffffffffffffffffffffffffffff168152602001908152602001600020549050919050565b610c856111f0565b73ffffffffffffffffffffffffffffffffffffffff16610ca3610d10565b73ffffffffffffffffffffffffffffffffffffffff1614610cf9576040517f08c379a0000000000000000000000000000000000000000000000000000000008152600401610cf090612ef3565b60405180910390fd5b610d0360006115f6565b565b662386f26fc1000081565b6000600a60009054906101000a900473ffffffffffffffffffffffffffffffffffffffff16905090565b606060018054610d49906131e9565b80601f0160208091040260200160405190810160405280929190818152602001828054610d75906131e9565b8015610dc25780601f10610d9757610100808354040283529160200191610dc2565b820191906000526020600020905b815481529060010190602001808311610da557829003601f168201915b5050505050905090565b6000610dd66107e4565b905060648282610de69190613078565b1115610e27576040517f08c379a0000000000000000000000000000000000000000000000000000000008152600401610e1e90612e13565b60405180910390fd5b60005b82811015610e5a57610e47338284610e429190613078565b6116bc565b8080610e529061324c565b915050610e2a565b505050565b610e71610e6a6111f0565b83836116da565b5050565b610e86610e806111f0565b836112b1565b610ec5576040517f08c379a0000000000000000000000000000000000000000000000000000000008152600401610ebc90612f53565b60405180910390fd5b610ed184848484611847565b50505050565b6060610ee282611184565b610f21576040517f08c379a0000000000000000000000000000000000000000000000000000000008152600401610f1890612f13565b60405180910390fd5b6000610f2b6118a3565b90506000815111610f4b5760405180602001604052806000815250610f76565b80610f5584611935565b604051602001610f66929190612c6b565b6040516020818303038152906040525b915050919050565b6000600560008473ffffffffffffffffffffffffffffffffffffffff1673ffffffffffffffffffffffffffffffffffffffff16815260200190815260200160002060008373ffffffffffffffffffffffffffffffffffffffff1673ffffffffffffffffffffffffffffffffffffffff16815260200190815260200160002060009054906101000a900460ff16905092915050565b61101a6111f0565b73ffffffffffffffffffffffffffffffffffffffff16611038610d10565b73ffffffffffffffffffffffffffffffffffffffff161461108e576040517f08c379a000000000000000000000000000000000000000000000000000000000815260040161108590612ef3565b60405180910390fd5b600073ffffffffffffffffffffffffffffffffffffffff168173ffffffffffffffffffffffffffffffffffffffff1614156110fe576040517f08c379a00000000000000000000000000000000000000000000000000000000081526004016110f590612d73565b60405180910390fd5b611107816115f6565b50565b60007f780e9d63000000000000000000000000000000000000000000000000000000007bffffffffffffffffffffffffffffffffffffffffffffffffffffffff1916827bffffffffffffffffffffffffffffffffffffffffffffffffffffffff1916148061117d575061117c82611ae2565b5b9050919050565b60008073ffffffffffffffffffffffffffffffffffffffff166002600084815260200190815260200160002060009054906101000a900473ffffffffffffffffffffffffffffffffffffffff1673ffffffffffffffffffffffffffffffffffffffff1614159050919050565b600033905090565b816004600083815260200190815260200160002060006101000a81548173ffffffffffffffffffffffffffffffffffffffff021916908373ffffffffffffffffffffffffffffffffffffffff160217905550808273ffffffffffffffffffffffffffffffffffffffff1661126b83610b13565b73ffffffffffffffffffffffffffffffffffffffff167f8c5be1e5ebec7d5bd14f71427d1e84f3dd0314c0f7b2291e5b200ac8c7c3b92560405160405180910390a45050565b60006112bc82611184565b6112fb576040517f08c379a00000000000000000000000000000000000000000000000000000000081526004016112f290612e33565b60405180910390fd5b600061130683610b13565b90508073ffffffffffffffffffffffffffffffffffffffff168473ffffffffffffffffffffffffffffffffffffffff16148061134857506113478185610f7e565b5b8061138657508373ffffffffffffffffffffffffffffffffffffffff1661136e84610647565b73ffffffffffffffffffffffffffffffffffffffff16145b91505092915050565b8273ffffffffffffffffffffffffffffffffffffffff166113af82610b13565b73ffffffffffffffffffffffffffffffffffffffff1614611405576040517f08c379a00000000000000000000000000000000000000000000000000000000081526004016113fc90612d93565b60405180910390fd5b600073ffffffffffffffffffffffffffffffffffffffff168273ffffffffffffffffffffffffffffffffffffffff161415611475576040517f08c379a000000000000000000000000000000000000000000000000000000000815260040161146c90612dd3565b60405180910390fd5b611480838383611bc4565b61148b6000826111f8565b6001600360008573ffffffffffffffffffffffffffffffffffffffff1673ffffffffffffffffffffffffffffffffffffffff16815260200190815260200160002060008282546114db91906130ff565b925050819055506001600360008473ffffffffffffffffffffffffffffffffffffffff1673ffffffffffffffffffffffffffffffffffffffff16815260200190815260200160002060008282546115329190613078565b92505081905550816002600083815260200190815260200160002060006101000a81548173ffffffffffffffffffffffffffffffffffffffff021916908373ffffffffffffffffffffffffffffffffffffffff160217905550808273ffffffffffffffffffffffffffffffffffffffff168473ffffffffffffffffffffffffffffffffffffffff167fddf252ad1be2c89b69c2b068fc378daa952ba7f163c4a11628f55a4df523b3ef60405160405180910390a46115f1838383611bd4565b505050565b6000600a60009054906101000a900473ffffffffffffffffffffffffffffffffffffffff16905081600a60006101000a81548173ffffffffffffffffffffffffffffffffffffffff021916908373ffffffffffffffffffffffffffffffffffffffff1602179055508173ffffffffffffffffffffffffffffffffffffffff168173ffffffffffffffffffffffffffffffffffffffff167f8be0079c531659141344cd1fd0a4f28419497f9722a3daafe3b4186f6b6457e060405160405180910390a35050565b6116d6828260405180602001604052806000815250611bd9565b5050565b8173ffffffffffffffffffffffffffffffffffffffff168373ffffffffffffffffffffffffffffffffffffffff161415611749576040517f08c379a000000000000000000000000000000000000000000000000000000000815260040161174090612df3565b60405180910390fd5b80600560008573ffffffffffffffffffffffffffffffffffffffff1673ffffffffffffffffffffffffffffffffffffffff16815260200190815260200160002060008473ffffffffffffffffffffffffffffffffffffffff1673ffffffffffffffffffffffffffffffffffffffff16815260200190815260200160002060006101000a81548160ff0219169083151502179055508173ffffffffffffffffffffffffffffffffffffffff168373ffffffffffffffffffffffffffffffffffffffff167f17307eab39ab6107e8899845ad3d59bd9653f200f220920489ca2b5937696c318360405161183a9190612cf6565b60405180910390a3505050565b61185284848461138f565b61185e84848484611c34565b61189d576040517f08c379a000000000000000000000000000000000000000000000000000000000815260040161189490612d53565b60405180910390fd5b50505050565b6060600b80546118b2906131e9565b80601f01602080910402602001604051908101604052809291908181526020018280546118de906131e9565b801561192b5780601f106119005761010080835404028352916020019161192b565b820191906000526020600020905b81548152906001019060200180831161190e57829003601f168201915b5050505050905090565b6060600082141561197d576040518060400160405280600181526020017f30000000000000000000000000000000000000000000000000000000000000008152509050611add565b600082905060005b600082146119af5780806119989061324c565b915050600a826119a891906130ce565b9150611985565b60008167ffffffffffffffff8111156119f1577f4e487b7100000000000000000000000000000000000000000000000000000000600052604160045260246000fd5b6040519080825280601f01601f191660200182016040528015611a235781602001600182028036833780820191505090505b5090505b60008514611ad657600182611a3c91906130ff565b9150600a85611a4b9190613295565b6030611a579190613078565b60f81b818381518110611a93577f4e487b7100000000000000000000000000000000000000000000000000000000600052603260045260246000fd5b60200101907effffffffffffffffffffffffffffffffffffffffffffffffffffffffffffff1916908160001a905350600a85611acf91906130ce565b9450611a27565b8093505050505b919050565b60007f80ac58cd000000000000000000000000000000000000000000000000000000007bffffffffffffffffffffffffffffffffffffffffffffffffffffffff1916827bffffffffffffffffffffffffffffffffffffffffffffffffffffffff19161480611bad57507f5b5e139f000000000000000000000000000000000000000000000000000000007bffffffffffffffffffffffffffffffffffffffffffffffffffffffff1916827bffffffffffffffffffffffffffffffffffffffffffffffffffffffff1916145b80611bbd5750611bbc82611dcb565b5b9050919050565b611bcf838383611e35565b505050565b505050565b611be38383611f49565b611bf06000848484611c34565b611c2f576040517f08c379a0000000000000000000000000000000000000000000000000000000008152600401611c2690612d53565b60405180910390fd5b505050565b6000611c558473ffffffffffffffffffffffffffffffffffffffff16612123565b15611dbe578373ffffffffffffffffffffffffffffffffffffffff1663150b7a02611c7e6111f0565b8786866040518563ffffffff1660e01b8152600401611ca09493929190612caa565b602060405180830381600087803b158015611cba57600080fd5b505af1925050508015611ceb57506040513d601f19601f82011682018060405250810190611ce8919061286f565b60015b611d6e573d8060008114611d1b576040519150601f19603f3d011682016040523d82523d6000602084013e611d20565b606091505b50600081511415611d66576040517f08c379a0000000000000000000000000000000000000000000000000000000008152600401611d5d90612d53565b60405180910390fd5b805181602001fd5b63150b7a0260e01b7bffffffffffffffffffffffffffffffffffffffffffffffffffffffff1916817bffffffffffffffffffffffffffffffffffffffffffffffffffffffff191614915050611dc3565b600190505b949350505050565b60007f01ffc9a7000000000000000000000000000000000000000000000000000000007bffffffffffffffffffffffffffffffffffffffffffffffffffffffff1916827bffffffffffffffffffffffffffffffffffffffffffffffffffffffff1916149050919050565b611e40838383612146565b600073ffffffffffffffffffffffffffffffffffffffff168373ffffffffffffffffffffffffffffffffffffffff161415611e8357611e7e8161214b565b611ec2565b8173ffffffffffffffffffffffffffffffffffffffff168373ffffffffffffffffffffffffffffffffffffffff1614611ec157611ec08382612194565b5b5b600073ffffffffffffffffffffffffffffffffffffffff168273ffffffffffffffffffffffffffffffffffffffff161415611f0557611f0081612301565b611f44565b8273ffffffffffffffffffffffffffffffffffffffff168273ffffffffffffffffffffffffffffffffffffffff1614611f4357611f428282612444565b5b5b505050565b600073ffffffffffffffffffffffffffffffffffffffff168273ffffffffffffffffffffffffffffffffffffffff161415611fb9576040517f08c379a0000000000000000000000000000000000000000000000000000000008152600401611fb090612eb3565b60405180910390fd5b611fc281611184565b15612002576040517f08c379a0000000000000000000000000000000000000000000000000000000008152600401611ff990612db3565b60405180910390fd5b61200e60008383611bc4565b6001600360008473ffffffffffffffffffffffffffffffffffffffff1673ffffffffffffffffffffffffffffffffffffffff168152602001908152602001600020600082825461205e9190613078565b92505081905550816002600083815260200190815260200160002060006101000a81548173ffffffffffffffffffffffffffffffffffffffff021916908373ffffffffffffffffffffffffffffffffffffffff160217905550808273ffffffffffffffffffffffffffffffffffffffff16600073ffffffffffffffffffffffffffffffffffffffff167fddf252ad1be2c89b69c2b068fc378daa952ba7f163c4a11628f55a4df523b3ef60405160405180910390a461211f60008383611bd4565b5050565b6000808273ffffffffffffffffffffffffffffffffffffffff163b119050919050565b505050565b6008805490506009600083815260200190815260200160002081905550600881908060018154018082558091505060019003906000526020600020016000909190919091505550565b600060016121a184610bc5565b6121ab91906130ff565b9050600060076000848152602001908152602001600020549050818114612290576000600660008673ffffffffffffffffffffffffffffffffffffffff1673ffffffffffffffffffffffffffffffffffffffff168152602001908152602001600020600084815260200190815260200160002054905080600660008773ffffffffffffffffffffffffffffffffffffffff1673ffffffffffffffffffffffffffffffffffffffff168152602001908152602001600020600084815260200190815260200160002081905550816007600083815260200190815260200160002081905550505b6007600084815260200190815260200160002060009055600660008573ffffffffffffffffffffffffffffffffffffffff1673ffffffffffffffffffffffffffffffffffffffff16815260200190815260200160002060008381526020019081526020016000206000905550505050565b6000600160088054905061231591906130ff565b905060006009600084815260200190815260200160002054905060006008838154811061236b577f4e487b7100000000000000000000000000000000000000000000000000000000600052603260045260246000fd5b9060005260206000200154905080600883815481106123b3577f4e487b7100000000000000000000000000000000000000000000000000000000600052603260045260246000fd5b906000526020600020018190555081600960008381526020019081526020016000208190555060096000858152602001908152602001600020600090556008805480612428577f4e487b7100000000000000000000000000000000000000000000000000000000600052603160045260246000fd5b6001900381819060005260206000200160009055905550505050565b600061244f83610bc5565b905081600660008573ffffffffffffffffffffffffffffffffffffffff1673ffffffffffffffffffffffffffffffffffffffff168152602001908152602001600020600083815260200190815260200160002081905550806007600084815260200190815260200160002081905550505050565b8280546124cf906131e9565b90600052602060002090601f0160209004810192826124f15760008555612538565b82601f1061250a57805160ff1916838001178555612538565b82800160010185558215612538579182015b8281111561253757825182559160200191906001019061251c565b5b5090506125459190612549565b5090565b5b8082111561256257600081600090555060010161254a565b5090565b600061257961257484612fd3565b612fae565b90508281526020810184848401111561259157600080fd5b61259c8482856131a7565b509392505050565b60006125b76125b284613004565b612fae565b9050828152602081018484840111156125cf57600080fd5b6125da8482856131a7565b509392505050565b6000813590506125f1816138b2565b92915050565b600081359050612606816138c9565b92915050565b60008135905061261b816138e0565b92915050565b600081519050612630816138e0565b92915050565b600082601f83011261264757600080fd5b8135612657848260208601612566565b91505092915050565b600082601f83011261267157600080fd5b81356126818482602086016125a4565b91505092915050565b600081359050612699816138f7565b92915050565b6000602082840312156126b157600080fd5b60006126bf848285016125e2565b91505092915050565b600080604083850312156126db57600080fd5b60006126e9858286016125e2565b92505060206126fa858286016125e2565b9150509250929050565b60008060006060848603121561271957600080fd5b6000612727868287016125e2565b9350506020612738868287016125e2565b92505060406127498682870161268a565b9150509250925092565b6000806000806080858703121561276957600080fd5b6000612777878288016125e2565b9450506020612788878288016125e2565b93505060406127998782880161268a565b925050606085013567ffffffffffffffff8111156127b657600080fd5b6127c287828801612636565b91505092959194509250565b600080604083850312156127e157600080fd5b60006127ef858286016125e2565b9250506020612800858286016125f7565b9150509250929050565b6000806040838503121561281d57600080fd5b600061282b858286016125e2565b925050602061283c8582860161268a565b9150509250929050565b60006020828403121561285857600080fd5b60006128668482850161260c565b91505092915050565b60006020828403121561288157600080fd5b600061288f84828501612621565b91505092915050565b6000602082840312156128aa57600080fd5b600082013567ffffffffffffffff8111156128c457600080fd5b6128d084828501612660565b91505092915050565b6000602082840312156128eb57600080fd5b60006128f98482850161268a565b91505092915050565b61290b81613133565b82525050565b61291a81613145565b82525050565b600061292b82613035565b612935818561304b565b93506129458185602086016131b6565b61294e81613382565b840191505092915050565b600061296482613040565b61296e818561305c565b935061297e8185602086016131b6565b61298781613382565b840191505092915050565b600061299d82613040565b6129a7818561306d565b93506129b78185602086016131b6565b80840191505092915050565b60006129d0602b8361305c565b91506129db82613393565b604082019050919050565b60006129f360328361305c565b91506129fe826133e2565b604082019050919050565b6000612a1660268361305c565b9150612a2182613431565b604082019050919050565b6000612a3960258361305c565b9150612a4482613480565b604082019050919050565b6000612a5c601c8361305c565b9150612a67826134cf565b602082019050919050565b6000612a7f60248361305c565b9150612a8a826134f8565b604082019050919050565b6000612aa260198361305c565b9150612aad82613547565b602082019050919050565b6000612ac560208361305c565b9150612ad082613570565b602082019050919050565b6000612ae8602c8361305c565b9150612af382613599565b604082019050919050565b6000612b0b60388361305c565b9150612b16826135e8565b604082019050919050565b6000612b2e602a8361305c565b9150612b3982613637565b604082019050919050565b6000612b5160298361305c565b9150612b5c82613686565b604082019050919050565b6000612b7460208361305c565b9150612b7f826136d5565b602082019050919050565b6000612b97602c8361305c565b9150612ba2826136fe565b604082019050919050565b6000612bba60208361305c565b9150612bc58261374d565b602082019050919050565b6000612bdd602f8361305c565b9150612be882613776565b604082019050919050565b6000612c0060218361305c565b9150612c0b826137c5565b604082019050919050565b6000612c2360318361305c565b9150612c2e82613814565b604082019050919050565b6000612c46602c8361305c565b9150612c5182613863565b604082019050919050565b612c658161319d565b82525050565b6000612c778285612992565b9150612c838284612992565b91508190509392505050565b6000602082019050612ca46000830184612902565b92915050565b6000608082019050612cbf6000830187612902565b612ccc6020830186612902565b612cd96040830185612c5c565b8181036060830152612ceb8184612920565b905095945050505050565b6000602082019050612d0b6000830184612911565b92915050565b60006020820190508181036000830152612d2b8184612959565b905092915050565b60006020820190508181036000830152612d4c816129c3565b9050919050565b60006020820190508181036000830152612d6c816129e6565b9050919050565b60006020820190508181036000830152612d8c81612a09565b9050919050565b60006020820190508181036000830152612dac81612a2c565b9050919050565b60006020820190508181036000830152612dcc81612a4f565b9050919050565b60006020820190508181036000830152612dec81612a72565b9050919050565b60006020820190508181036000830152612e0c81612a95565b9050919050565b60006020820190508181036000830152612e2c81612ab8565b9050919050565b60006020820190508181036000830152612e4c81612adb565b9050919050565b60006020820190508181036000830152612e6c81612afe565b9050919050565b60006020820190508181036000830152612e8c81612b21565b9050919050565b60006020820190508181036000830152612eac81612b44565b9050919050565b60006020820190508181036000830152612ecc81612b67565b9050919050565b60006020820190508181036000830152612eec81612b8a565b9050919050565b60006020820190508181036000830152612f0c81612bad565b9050919050565b60006020820190508181036000830152612f2c81612bd0565b9050919050565b60006020820190508181036000830152612f4c81612bf3565b9050919050565b60006020820190508181036000830152612f6c81612c16565b9050919050565b60006020820190508181036000830152612f8c81612c39565b9050919050565b6000602082019050612fa86000830184612c5c565b92915050565b6000612fb8612fc9565b9050612fc4828261321b565b919050565b6000604051905090565b600067ffffffffffffffff821115612fee57612fed613353565b5b612ff782613382565b9050602081019050919050565b600067ffffffffffffffff82111561301f5761301e613353565b5b61302882613382565b9050602081019050919050565b600081519050919050565b600081519050919050565b600082825260208201905092915050565b600082825260208201905092915050565b600081905092915050565b60006130838261319d565b915061308e8361319d565b9250827fffffffffffffffffffffffffffffffffffffffffffffffffffffffffffffffff038211156130c3576130c26132c6565b5b828201905092915050565b60006130d98261319d565b91506130e48361319d565b9250826130f4576130f36132f5565b5b828204905092915050565b600061310a8261319d565b91506131158361319d565b925082821015613128576131276132c6565b5b828203905092915050565b600061313e8261317d565b9050919050565b60008115159050919050565b60007fffffffff0000000000000000000000000000000000000000000000000000000082169050919050565b600073ffffffffffffffffffffffffffffffffffffffff82169050919050565b6000819050919050565b82818337600083830152505050565b60005b838110156131d45780820151818401526020810190506131b9565b838111156131e3576000848401525b50505050565b6000600282049050600182168061320157607f821691505b6020821081141561321557613214613324565b5b50919050565b61322482613382565b810181811067ffffffffffffffff8211171561324357613242613353565b5b80604052505050565b60006132578261319d565b91507fffffffffffffffffffffffffffffffffffffffffffffffffffffffffffffffff82141561328a576132896132c6565b5b600182019050919050565b60006132a08261319d565b91506132ab8361319d565b9250826132bb576132ba6132f5565b5b828206905092915050565b7f4e487b7100000000000000000000000000000000000000000000000000000000600052601160045260246000fd5b7f4e487b7100000000000000000000000000000000000000000000000000000000600052601260045260246000fd5b7f4e487b7100000000000000000000000000000000000000000000000000000000600052602260045260246000fd5b7f4e487b7100000000000000000000000000000000000000000000000000000000600052604160045260246000fd5b6000601f19601f8301169050919050565b7f455243373231456e756d657261626c653a206f776e657220696e646578206f7560008201527f74206f6620626f756e6473000000000000000000000000000000000000000000602082015250565b7f4552433732313a207472616e7366657220746f206e6f6e20455243373231526560008201527f63656976657220696d706c656d656e7465720000000000000000000000000000602082015250565b7f4f776e61626c653a206e6577206f776e657220697320746865207a65726f206160008201527f6464726573730000000000000000000000000000000000000000000000000000602082015250565b7f4552433732313a207472616e736665722066726f6d20696e636f72726563742060008201527f6f776e6572000000000000000000000000000000000000000000000000000000602082015250565b7f4552433732313a20746f6b656e20616c7265616479206d696e74656400000000600082015250565b7f4552433732313a207472616e7366657220746f20746865207a65726f2061646460008201527f7265737300000000000000000000000000000000000000000000000000000000602082015250565b7f4552433732313a20617070726f766520746f2063616c6c657200000000000000600082015250565b7f707572636861736520776f756c6420657863656564206d617820737570706c79600082015250565b7f4552433732313a206f70657261746f7220717565727920666f72206e6f6e657860008201527f697374656e7420746f6b656e0000000000000000000000000000000000000000602082015250565b7f4552433732313a20617070726f76652063616c6c6572206973206e6f74206f7760008201527f6e6572206e6f7220617070726f76656420666f7220616c6c0000000000000000602082015250565b7f4552433732313a2062616c616e636520717565727920666f7220746865207a6560008201527f726f206164647265737300000000000000000000000000000000000000000000602082015250565b7f4552433732313a206f776e657220717565727920666f72206e6f6e657869737460008201527f656e7420746f6b656e0000000000000000000000000000000000000000000000602082015250565b7f4552433732313a206d696e7420746f20746865207a65726f2061646472657373600082015250565b7f4552433732313a20617070726f76656420717565727920666f72206e6f6e657860008201527f697374656e7420746f6b656e0000000000000000000000000000000000000000602082015250565b7f4f776e61626c653a2063616c6c6572206973206e6f7420746865206f776e6572600082015250565b7f4552433732314d657461646174613a2055524920717565727920666f72206e6f60008201527f6e6578697374656e7420746f6b656e0000000000000000000000000000000000602082015250565b7f4552433732313a20617070726f76616c20746f2063757272656e74206f776e6560008201527f7200000000000000000000000000000000000000000000000000000000000000602082015250565b7f4552433732313a207472616e736665722063616c6c6572206973206e6f74206f60008201527f776e6572206e6f7220617070726f766564000000000000000000000000000000602082015250565b7f455243373231456e756d657261626c653a20676c6f62616c20696e646578206f60008201527f7574206f6620626f756e64730000000000000000000000000000000000000000602082015250565b6138bb81613133565b81146138c657600080fd5b50565b6138d281613145565b81146138dd57600080fd5b50565b6138e981613151565b81146138f457600080fd5b50565b6139008161319d565b811461390b57600080fd5b5056fea2646970667358221220c6cb591744174366fec4c6929c9b57382a187968b786c6eb75f2250ae2b1e5c964736f6c63430008040033",
  "linkReferences": {},
  "deployedLinkReferences": {}
}